:1000000000308A006E2A00000A108A100A11820746
:1000100028340C34013406340A108A100A1182077D
:100020000C344134753474346F3472346F34623448
:100030006F347434693463346134203400340A100A
:100040008A100A1182070A3443346F346E347434D0
:1000500072346F346C34653420345434483443344F
:1000600000340A108A100A1182070C3441346A34B1
:100070007534733474346534203464346534203416
:10008000743465346E34733461346F3400340A1060
:100090008A100A1182070A3456346F346C3474346F
:1000A0006134673465346D343A3425347534003442
:1000B0000A108A100A1182070C3441346A347534EC
:1000C000733474346534203468346934733474346C
:1000D0006534723465347334653400340A108A1020
:1000E0000A1182070A3456346F346C347434733412
:1000F0003A342534753400340A108A100A11820704
:100100000C345434653473347434653420346434BA
:1001100065342034733461346934643461340034B8
:100120000A108A100A1182070A3444346534733481
:100130006334653400340A108A100A1182070A34C5
:1001400053346F3462346534203400340A108A101A
:100150000A1182070C34543465346D3470346F34B2
:10016000203464346534203472346534743461343A
:10017000723464346F3400340A108A100A11820712
:100180000A344D3473346534673475346E346434F2
:100190006F3473343A3425346C34753400340A10B7
:1001A0008A100A1182070C3428345634293420343A
:1001B00044346534663469346E346934643461348B
:1001C0003A34253475340A342834563429342034EA
:1001D00041347434753461346C3420343A34253409
:1001E000753400343D30840083130008031900295E
:1001F0005130F700F70BFA28FD286400800BF8282F
:1002000000344E0EF039F7000F30080577048800EF
:10021000000008146400081000348810F0308316C1
:100220008800831208150000081400000808080E52
:100230000F39CE0008100000081464000808080EEA
:100240000F39CD00081000308316880083124E0E3F
:10025000F700F030F70577084D04F8007808CD0076
:10026000CD1B0E294B1C88104B1888140000081158
:10027000000008104C0ECD000F30CD054D08CE000B
:1002800001214C080F39CD00CE000121003400308F
:100290008316880083128810081108100F30BD00E3
:1002A000F2200130BC003C08033C031C5F290330F2
:1002B000CE0001210530BD00F220BC0A53290230D6
:1002C000CE000121BC013C08033C031C70293C0802
:1002D0000420BD00CB013D08CC000D21BC0A6329E0
:1002E0008A110A129C2A46080C3A03197E29063AFA
:1002F00003198829023A03199E29A329CB01013049
:10030000CC000D21A630F700F70B84290000A929A5
:100310000130C7000230C800480B8F2992294030B5
:10032000C9009329C90101304702C907490880382B
:10033000CA00CB014A08CC000D21A929CB011030FD
:10034000CC000D21A9290130CB004608CC000D219D
:10035000A92900344108F80140020318B2294008D5
:10036000F700BE29F7010830C200C00DF70D4108A3
:1003700077020318F700F80DC20BB529003478088E
:100380003E08C0006430C100AA217708BE0078088A
:100390003030031DD229BF1CD929BF19D9293F1AD2
:1003A0002030D529BF113F123F14F8077808C60046
:1003B00073213E08C0000A30C100AA217708BE00A0
:1003C00078083030031DEA29BF19EE293F1CEE29B9
:1003D0003F1A2030F8077808C60073213030BE0776
:1003E0003E08C60073210034C5010408C40045104E
:1003F000831B45143E0EF038C000C007E23EC1002A
:10040000323EC3003E080F39C107C107C307E93EAA
:10041000C200C207C2073D0E0F39C207C307C20D93
:10042000C30DC309C30D3D080F39C307C00D073005
:10043000BF000A30C307C203031C1A2AC207C10344
:10044000031C1E2AC107C003031C222AC007BF03C6
:10045000031C262A3F3084008313073044054413CD
:10046000840743300402031944170008F700031DF2
:10047000412A441B412A441A532AC419412A2030D4
:10048000442AC41544123030F707BE010408BD00E9
:100490003E10831B3E147708C60073213D0884007C
:1004A00083133E188317840A441F312A8A110A12C3
:1004B000CF2C1030C000F701FA01BD0CBC0C031C9E
:1004C000672A3E08F7070318FA0A3F08FA07FA0CEA
:1004D000F70CF90CF80CC00B5D2A0034840183136F
:1004E0001F30830583161F149F141F159F1107309B
:1004F0009C008312A001A101AC01AD01AE01053049
:10050000AF00B1011930B200B301B401B501B601B9
:10051000B701B801B901BA01FF30BB0083161F1043
:100520009F101F159F111F1383121F139F178316F0
:100530009F1383121F1447290C30F700810181306B
:10054000840083130008F039073880006400000835
:10055000F739F719F03977048000FF3083168700E8
:100560008312BB00F930831686008113F1308500B9
:100570008312BC013C080C20BC0AF700C6007321A2
:100580000E303C02031DBA2ABC013C081F20BC0AE5
:10059000F700C60073210D303C02031DC52A0C3044
:1005A000BC00FA30BD00F220BC0BD12A0C30BC00DC
:1005B000FA30BD00F220BC0BD82A03178D01831638
:1005C0008C130C1483120C080313B00001300317B2
:1005D0008D0083168C130C1483120C080313AF00C8
:1005E000023003178D0083168C130C1483120C0831
:1005F0000313B500B8013508B7006400FF2A002BCB
:10060000012B64000030F8001F08C73978049F00F0
:100610001F151F19092B1E08B300A1013308A000E4
:100620000730AC00AC0803192B2B24302C07F80042
:10063000FA010318FA0A01302C02243E84008313C5
:100640000008BF007808840083137A1883173F08D6
:100650008000AC03122BAE01AD012008A400AC0158
:100660002C08073C031C3E2B24302C0784008313EA
:100670000008AD070318AE0AAC0A302B2E0CFA00A6
:100680002D0CF900FA0CF90CFA0CF90C7908B100F0
:100690008316861583128619592B3408043C031DD2
:1006A000592BB4010630BC00FA30BD00F220BC0B5F
:1006B000542B83168615831286196B2B3408033C42
:1006C000031D6B2B0430B4000630BC00FA30BD00B3
:1006D000F220BC0B662B83168615831286197D2BA0
:1006E0003408023C031D7D2B0330B4000630BC00EF
:1006F000FA30BD00F220BC0B782B831686158312CE
:1007000086198D2B340B8D2B0230B4000630BC00C3
:10071000FA30BD00F220BC0B882B8316861583129D
:1007200086199E2BB408031D9E2B0130B4000630A1
:10073000BC00FA30BD00F220BC0B992B3408013A02
:100740000319AC2B033A0319FE2B013A03193F2C72
:10075000073A0319B22C272DBC013C083120BC0AF2
:10076000F700C600732111303C02031DAD2BBC0104
:100770003C084720BC0AF700C60073210A303C023F
:10078000031DB82B3008BE001B30BF00BF21640022
:10079000831606168312061ACF2B0130B007831674
:1007A00086168312861ADA2B3008013C0318DA2BDE
:1007B0000130B00203178D010313300803178C00BA
:1007C00083168C130C15831203130B08F7008B137D
:1007D0008316031755308D00AA308D008C148C18A9
:1007E000EF2B0C117708831203138B040430BC0029
:1007F000FA30BD00F220BC0BF82B4A2DBC013C089E
:100800005820BC0AF700C600732111303C02031DBA
:10081000FF2BBC013C086E20BC0AF700C600732108
:1008200007303C02031D0A2C2F08BE001B30BF00FE
:10083000BF216400831606168312061A2C2C2F087B
:10084000313C031C2C2C0130AF070430BC00FA30C3
:10085000BD00F220BC0B272C831686168312861A45
:100860003E2C2F08013C03183E2C0130AF0204300F
:10087000BC00FA30BD00F220BC0B392C4A2DBC0163
:100880003C087C20BC0AF700C60073210F303C02F4
:10089000031D402CBC013C086E20BC0AF700C600BA
:1008A000732107303C02031D4B2C2F08BE001B3068
:1008B000BF00BF21831686168312861A732C8316F7
:1008C0000511831205158316851083128510BC014E
:1008D0003C089020BC0AF700C600732106303C0299
:1008E000031D682C5A2C831606168312061A8C2CAC
:1008F0008316851083128514831605118312051142
:10090000BC013C089B20BC0AF700C60073210630DE
:100910003C02031D812C732C6400013003178D00F1
:1009200003132F0803178C0083168C130C158312E6
:1009300003130B08F7008B138316031755308D0034
:10094000AA308D008C148C18A32C0C1177088312FC
:1009500003138B040430BC00FA30BD00F220BC0B42
:10096000AC2C4A2DBC013C08A620BC0AF700C600EE
:10097000732111303C02031DB32CBC013C08BC2088
:10098000BC0AF700C60073210B303C02031DBE2CCD
:10099000103084003808BE003708BD00F4298316E3
:1009A00006168312061AE02C350FD72CE02C1430D3
:1009B000B5070430BC00FA30BD00F220BC0BDB2CC4
:1009C000831686168312861AF22C35080A3C031801
:1009D000F22C1430B5020430BC00FA30BD00F22015
:1009E000BC0BED2CB8013508B7003808BD0037083E
:1009F000BC00BF010A30BE0059227908B80078084F
:100A0000B7006400023003178D0003133508031785
:100A10008C0083168C130C15831203130B08F7003C
:100A20008B138316031755308D00AA308D008C145C
:100A30008C18182D0C117708831203138B040430C3
:100A4000BC00FA30BD00F220BC0B212D4A2DBC01A8
:100A50003C08CF20BC0AF700C60073210E303C02D0
:100A6000031D282D3008BE001B30BF00BF211030F1
:100A7000BD003D08CF20BD0AF700C60073211C3021
:100A80003D02031D392D3108BE001B30BF00BF21C0
:100A9000B4014A2D310832020318632DB608031D34
:100AA000632DB708031D572DB8080319632D0130B6
:100AB000B600B7020030031C0130B8020F30BD0091
:100AC000F2206400512D310832020318882D360BB4
:100AD000882D2F08310730020319752D031C752D41
:100AE0008316051183120515792D831605118312BE
:100AF00005112F08310230020318832D831685104B
:100B000083128514872D8316851083128510A02DDE
:100B1000B8013508B7003808BD003708BC00BF0170
:100B20000A30BE0059227908B8007808B700B6012B
:100B30008316051183120511831685108312851003
:0A0B4000C830BD00F220012B630055
:02400E00763FFB
:00000001FF
;PIC16F877A
