:1000000000308A00182A00000A108A100A1182079C
:1000100028340C34013406340A108A100A1182077D
:100020000C345234613475346C34203454344834D4
:10003000433400340A108A100A1182070C34413408
:100040006A347534733474346534203464346534FC
:100050002034743465346E34733461346F34003456
:100060000A108A100A1182070A3456346F346C342D
:1000700074346134673465346D343A3425347534FE
:1000800000340A108A100A1182070C3428345634BE
:100090002934203444346534663469346E34693428
:1000A0006434613420343A34253475340A342834C5
:1000B00056342934203441347434753461346C340A
:1000C00020343A342534753400342B3084008313C3
:1000D0000008031971288430F700F70B6D28800B96
:1000E0006B280034320EF039F7000F300805770422
:1000F000880000000814081000348810F0308316BF
:100100008800831208150000081400000808080E73
:100110000F39B2000810000008140808080E0F3943
:10012000B10008100030831688008312320EF700E9
:10013000F030F70577083104F8007808B100B11BFA
:100140007E282F1C88102F1888140000081100002A
:100150000810300EB1000F30B1053108B200722026
:1001600030080F39B100B20072200034003083161D
:10017000880083128810081108100F30AB0065202A
:100180000130A6002608033C031CCE280330B20031
:1001900072200530AB006520A60AC2280230B200EA
:1001A0007220A6012608033C031CDF282608042031
:1001B000A700AF012708B0007D20A60AD2288A1127
:1001C0000A12472A2A080C3A0319ED28063A03199D
:1001D000F528023A03190B291029AF010130B000AC
:1001E0007D200230AB00652016290130AB000230C3
:1001F000AC002C0BFC28FF284030AD000029AD01DD
:1002000001302B02AD072D088038AE00AF012E085B
:10021000B0007D201629AF011030B0007D201629D6
:100220000130AF002A08B0007D20162900348E303E
:10023000F7002708F8002608F900FA01F808031D5E
:100240002B297908F800F9010830F702F808031D96
:100250002B29F70133290310F81B3229F90DF80D6A
:10026000F7032B29F8138A110A128D2A260803197D
:10027000A629AE002A080319A629AE0703184729A4
:100280007F30AE02031CA6290319A6294B29813011
:10029000AE070318A6292E08F700F801F901FA01A4
:1002A0002708B200B2172808B1002908B00018309A
:1002B000AE00AF01301C74292D08FA07031C662913
:1002C000F90A031D6629F80A0319AF172C08F90764
:1002D000031C6D29F80A0319AF172B08A800A817EB
:1002E0002808F8070318AF17AF0DF80CF90CFA0C33
:1002F000B20CB10CB00C0310AE0B59290130F7074A
:100300000318A629F81B8B29B20DFA0DF90DF80D6B
:10031000F7030319A629B21F9C29FA0A031D9C2979
:10032000F90A031D9C29F80A031D9C29F80CF90CF5
:10033000FA0CF70A0319A6292708AF002B08AF0605
:10034000AF1FA429F817AA29F813AA29F701F80161
:10035000F901FA018A110A129B2A8E30F700260849
:10036000F7022708F9002808F800F917F708031919
:10037000C4290310F908031DC029F8080319C4296A
:10038000F90CF80CF70BB929A71FCB29F809F909C3
:10039000F80A0319F90A8A110A12A42A2B08F8018B
:1003A0002A020318D6292A08F700E229F7010830A3
:1003B000AC00AA0DF70D2B0877020318F700F80D13
:1003C000AC0BD929003478082808AA006430AB00A7
:1003D000CE217708A80078083030031DF629A91C23
:1003E000FD29A919FD29291A2030F929A911291255
:1003F0002914F8077808AA00E2202808AA000A3081
:10040000AB00CE217708A80078083030031D0E2AF3
:10041000A919122A291C122A291A2030F80778084B
:10042000AA00E2203030A8072808AA00E220003401
:10043000840183131F30830583161F149F141F1517
:100440009F1107309C0005308312A000A2011930D3
:10045000A300A401FF30A50083161F109F101F15D5
:100460009F111F1383121F139F1783169F1383124D
:100470001F14073083169C0005083E2A3F2A1C08DB
:1004800083120D13013083169D008312B6280F309E
:10049000F70081018130840083130008F0390738A8
:1004A000800064000008F739F719F03977048000FC
:1004B000FF30831687008312A5007F3083168600E5
:1004C00081138312A60126080C20A60AF700AA00B1
:1004D000E22009302602031D632A0C30A600FA3000
:1004E000AB006520A60B6F2A03178D0183168C13B2
:1004F0000C1483120C080313A10064000030F800F0
:100500001F08C73978049F001F151F19852A1E0868
:10051000A400A7012408A60017297A08A9007908D1
:10052000A8007808A7007708A600AD01AC01AB01D0
:100530007E30AA0036297A08A9007908A800780830
:10054000A7007708A600AD297808A4002408220790
:10055000F7000310770CA2000230A6009630AB0023
:100560006520A60BAE2A831606168312061EBD2A28
:10057000831686168312861A0F2BA60126081A20C8
:10058000A60AF700AA00E22011302602031DBE2AA7
:10059000A60126083020A60AF700AA00E2200A30A9
:1005A0002602031DC92A2108A8001B30A900E32147
:1005B0006400831606168312061AE02A0130A1078A
:1005C000831686168312861AEB2A2108013C03182B
:1005D000EB2A0130A10203178D0103132108031731
:1005E0008C0083168C130C15831203130B08F70071
:1005F0008B138316031755308D00AA308D008C1491
:100600008C18002B0C117708831203138B04043011
:10061000A600FA30AB006520A60B092BB32A2208EE
:1006200023020318322B20082207210203191F2B53
:10063000031C1F2B8316051183120515232B83160C
:1006400005118312051120082207210203182D2B02
:100650008316851083128514312B8316851083121F
:1006600085103A2B83160511831205118316851008
:10067000831285100430A600C830AB006520A60B9D
:100680003C2BA60126084120A60AF700AA00E2207A
:100690000F302602031D422B2108A8001B30A900A1
:1006A000E3211130A70027084120A70AF700AA007C
:1006B000E2201D302702031D532B2208A8001B3007
:0806C000A900E3217D2A63007B
:02400E00763FFB
:00000001FF
;PIC16F877A
