:1000000000308A000E2A00000A108A100A118207A6
:1000100028340C34013406340A108A100A1182077D
:100020000C345234613475346C34203400340A108A
:100030008A100A1182070A3443346F346E347434E0
:1000400072346F346C34653420345434483443345F
:1000500000340A108A100A1182070C3441346A34C1
:100060007534733474346534203464346534203426
:10007000743465346E34733461346F3400340A1070
:100080008A100A1182070A3456346F346C3474347F
:100090006134673465346D343A3425347534003452
:1000A0000A108A100A1182070C3441346A347534FC
:1000B000733474346534203468346934733474347C
:1000C0006534723465347334653400340A108A1030
:1000D0000A1182070A3456346F346C347434733422
:1000E0003A342534753400340A108A100A11820714
:1000F0000C345434653473347434653420346434CB
:1001000065342034733461346934643461340034C8
:100110000A108A100A1182070A3444346534733491
:100120006334653400340A108A100A1182070A34D5
:1001300053346F3462346534203400340A108A102A
:100140000A1182070C34543465346D3470346F34C2
:10015000203464346534203472346534743461344A
:10016000723464346F3400340A108A100A11820722
:100170000A344D3473346534673475346E34643402
:100180006F3473343A342534753400340A108A10CD
:100190000A1182070C34283456342934203444346C
:1001A0006534663469346E346934643461343A34A5
:1001B000253475340A3428345634293420344134F3
:1001C0007434753461346C3420343A3425347534E5
:1001D00000342C308400831300080319F5285230B2
:1001E000F700F70BF128800BEF280034370EF039B9
:1001F000F7000F3008057704880000000814081085
:1002000000348810F030831688008312081500002F
:10021000081400000808080E0F39B7000810000085
:1002200008140808080E0F39B600081000308316AD
:1002300088008312370EF700F030F7057708360490
:10024000F8007808B600B61B0229341C8810341850
:1002500088140000081100000810350EB6000F3099
:10026000B6053608B700F62035080F39B600B700D6
:10027000F62000340030831688008312881008119D
:1002800008100F30AC00E9200130AB002B08033C14
:10029000031C52290330B700F6200530AC00E920DA
:1002A000AB0A46290230B700F620AB012B08033C0D
:1002B000031C63292B080420AC00B4012C08B500F2
:1002C0000121AB0A56298A110A12352A2F080C3A45
:1002D00003197129063A03197B29023A0319912956
:1002E0009629B4010130B5000121A630F700F70BC3
:1002F000772900009C290130B0000230B100310B99
:10030000822985294030B2008629B20101303002AD
:10031000B20732088038B300B4013308B5000121B8
:100320009C29B4011030B50001219C290130B40092
:100330002F08B50001219C2900343008F8012F0254
:100340000318A5292F08F700B129F7010830B100DB
:10035000AF0DF70D300877020318F700F80DB10B59
:10036000A829003478082D08AF006430B0009D2122
:100370007708AD0078083030031DC529AE1CCC29A4
:10038000AE19CC292E1A2030C829AE112E122E14E7
:10039000F8077808AF0066212D08AF000A30B000DA
:1003A0009D217708AD0078083030031DDD29AE1996
:1003B000E1292E1CE1292E1A2030F8077808AF0019
:1003C00066213030AD072D08AF0066210034F701FB
:1003D000F8012B0803102C18F707F70CF80CAC18D1
:1003E000F707F70CF80C2C19F707F70CF80CAC19F9
:1003F000F707F70CF80C2C1AF707F70CF80CAC1AE7
:10040000F707F70CF80C2C1BF707F70CF80CAC1BD4
:10041000F707F70CF80C8A110A12FE2B84018313DC
:100420001F30830583161F149F141F159F1107305B
:100430009C0005308312A000A2011930A300A40182
:10044000A501A601A701A801A901FF30AA008316F2
:100450001F109F101F159F111F1383121F139F172B
:1004600083169F1383121F143A290F30F70081015E
:100470008130840083130008F0390738800064005D
:100480000008F739F719F03977048000FF30831638
:1004900087008312AA00F930831686008113F13099
:1004A00085008312AB012B080C20AB0AF700AF00CC
:1004B000662106302B02031D532AAB012B0817209F
:1004C000AB0AF700AF0066210D302B02031D5E2A38
:1004D0000230AB009630AC00E920AB0B6A2A031760
:1004E0008D0183168C130C1483120C080313A100C6
:1004F000013003178D0083168C130C1483120C0823
:100500000313A000023003178D0083168C130C1404
:1005100083120C080313A60064000030F8001F08C3
:10052000C73978049F001F151F19942A1E08A400BC
:100530002408A2006430AC00E920831686158312DB
:100540008619AE2A2508043C031DAE2AA5010630F3
:10055000AB00FA30AC00E920AB0BA92A8316861554
:1005600083128619C02A2508033C031DC02A0430C3
:10057000A5000630AB00FA30AC00E920AB0BBB2A7B
:100580008316861583128619D22A2508023C031D7C
:10059000D22A0330A5000630AB00FA30AC00E920C7
:1005A000AB0BCD2A8316861583128619E22A250BFA
:1005B000E22A0230A5000630AB00FA30AC00E92098
:1005C000AB0BDD2A8316861583128619F32AA5083C
:1005D000031DF32A0130A5000630AB00FA30AC0051
:1005E000E920AB0BEE2A2508013A0319012B033A47
:1005F0000319532B013A0319862B073A0319F92BD8
:10060000582CAB012B082920AB0AF700AF0066215C
:1006100011302B02031D022BAB012B083F20AB0A2C
:10062000F700AF0066210A302B02031D0D2B2108B5
:10063000AD001B30AE00B221640083160616831293
:10064000061A242B0130A107831686168312861AF8
:100650002F2B2108013C03182F2B0130A102031777
:100660008D010313210803178C0083168C130C15BE
:10067000831203130B08F7008B13831603175530EF
:100680008D00AA308D008C148C18442B0C11770827
:10069000831203138B040430AB00FA30AC00E92062
:1006A000AB0B4D2B7B2CAB012B085020AB0AF7007A
:1006B000AF00662111302B02031D542BAB012B0818
:1006C0006620AB0AF700AF00662107302B02031D3E
:1006D0005F2B2008AD001B30AE00B22164008316F2
:1006E00006168312061A7A2B2008313C031C7A2B3B
:1006F0000130A007831686168312861A852B2008E0
:10070000013C0318852B0130A0027B2CAB012B0888
:100710007420AB0AF700AF0066210F302B02031DD7
:10072000872BAB012B086620AB0AF700AF006621D0
:1007300007302B02031D922B2008AD001B30AE00AA
:10074000B221831686168312861ABA2B83160511D8
:10075000831205158316851083128510AB012B08B3
:100760008820AB0AF700AF00662106302B02031D7C
:10077000AF2BA12B831606168312061AD32B8316D2
:100780008510831285148316051183120511AB01A0
:100790002B089320AB0AF700AF00662106302B022E
:1007A000031DC82BBA2B6400013003178D000313FF
:1007B000200803178C0083168C130C158312031367
:1007C0000B08F7008B138316031755308D00AA30E2
:1007D0008D008C148C18EA2B0C11770883120313EC
:1007E0008B040430AB00FA30AC00E920AB0BF32BE8
:1007F0007B2C2608AB000A30AC00E729A901780859
:10080000A800AB012B089E20AB0AF700AF006621C1
:1008100011302B02031D022CAB012B08B420AB0AB4
:10082000F700AF0066210B302B02031D0D2C2608AC
:10083000AD001B30AE00B221831606168312061AD5
:10084000272C2608F93C031C272C1430A6078316F6
:1008500086168312861A322C2608143C0318322C72
:100860001430A6026400023003178D00031326081B
:1008700003178C0083168C130C15831203130B08BB
:10088000F7008B138316031755308D00AA308D00A7
:100890008C148C18492C0C117708831203138B04C9
:1008A0000430AB00FA30AC00E920AB0B522C7B2CAF
:1008B000AB012B08C620AB0AF700AF0066210E3053
:1008C0002B02031D592C2108AD001B30AE00B221B4
:1008D0001030AC002C08C620AC0AF700AF0066212F
:1008E0001C302C02031D6A2C2208AD001B30AE0008
:1008F000B221A5017B2C220823020318A62C3A3032
:10090000A707270826020318A52C2608A7002008F9
:10091000220721020319932C031C932C8316051123
:1009200083120515972C83160511831205112008D3
:10093000220721020318A12C831685108312851427
:10094000A52C8316851083128510AF2CA701831662
:100950000511831205118316851083128510C83086
:08096000AC00E9208C2A6300C1
:02400E00763FFB
:00000001FF
;PIC16F877A
