:1000000000308A00BF2900000A108A100A118207F6
:1000100028340C34013406340A108A100A1182077D
:100020000C345234613475346C34203400340A108A
:100030008A100A1182070A3443346F346E347434E0
:1000400072346F346C34653420345434483443345F
:1000500000340A108A100A1182070C3441346A34C1
:100060007534733474346534203464346534203426
:10007000743465346E34733461346F3400340A1070
:100080008A100A1182070A3456346F346C3474347F
:100090006134673465346D343A3425347534003452
:1000A0000A108A100A1182070C3441346A347534FC
:1000B000733474346534203468346934733474347C
:1000C0006534723465347334653400340A108A1030
:1000D0000A1182070A3456346F346C347434733422
:1000E0003A342534753400340A108A100A11820714
:1000F0000C345434653473347434653420346434CB
:1001000065342034733461346934643461340034C8
:100110000A108A100A1182070A3453346F34623489
:100120006534203400340A108A100A1182070A3418
:100130004434653473346334653400340A108A10EF
:100140000A1182070C3428345634293420344434BC
:100150006534663469346E346934643461343A34F5
:10016000253475340A342834563429342034413443
:100170007434753461346C3420343A342534753435
:10018000003428308400831300080319CD2852302E
:10019000F700F70BC928800BC7280034330EF0395D
:1001A000F7000F30080577048800000008140810D5
:1001B00000348810F0308316880083120815000080
:1001C000081400000808080E0F39B30008100000DA
:1001D00008140808080E0F39B20008100030831602
:1001E00088008312330EF700F030F70577083204E9
:1001F000F8007808B200B21BDA28301C88103018DA
:1002000088140000081100000810310EB2000F30F1
:10021000B2053208B300CE2031080F39B200B30066
:10022000CE20003400308316880083128810081115
:1002300008100F30A800C1200130A7002708033C98
:10024000031C2A290330B300CE200530A800C120AA
:10025000A70A1E290230B300CE20A7012708033CBD
:10026000031C3B2927080420A800B0012808B1007E
:10027000D920A70A2E298A110A12E2292B080C3A42
:1002800003194929063A03195329023A031969291E
:100290006E29B0010130B100D920A630F700F70B6C
:1002A0004F29000074290130AC000230AD002D0B45
:1002B0005A295D294030AE005E29AE0101302C0282
:1002C000AE072E088038AF00B0012F08B100D9204A
:1002D0007429B0011030B100D92074290130B00068
:1002E0002B08B100D920742900342C08F8012B0206
:1002F00003187D292B08F7008929F7010830AD0084
:10030000AB0DF70D2C0877020318F700F80DAD0BB5
:100310008029003478082908AB006430AC007521CE
:100320007708A90078083030031D9D29AA1CA4294C
:10033000AA19A4292A1A2030A029AA112A122A149B
:10034000F8077808AB003E212908AB000A30AC0062
:1003500075217708A90078083030031DB529AA193E
:10036000B9292A1CB9292A1A2030F8077808AB00C5
:100370003E213030A9072908AB003E21003484011A
:1003800083131F30830583161F149F141F159F119D
:1003900007309C0005308312A000A2011930A30091
:1003A000A401A501FF30A60083161F109F101F1582
:1003B0009F111F1383121F139F1783169F138312FE
:1003C0001F1412290C30F70081018130840083133F
:1003D0000008F0390738800064000008F739F71981
:1003E000F03977048000FF30831687008312A6005F
:1003F000F930831686008113FF3085008312A70130
:1004000027080C20A70AF700AB003E210630270280
:10041000031D002AA70127081720A70AF700AB0031
:100420003E210D302702031D0B2A0C30A700FA30A5
:10043000A800C120A70B172A03178D0183168C1360
:100440000C1483120C080313A100013003178D0054
:1004500083168C130C1483120C080313A000640081
:100460000030F8001F08C73978049F001F151F19B6
:10047000372A1E08A40024082207F7000310770C6F
:10048000A2000230A7009630A800C120A70B432A83
:100490008316861583128619592A2508033C031DE5
:1004A000592AA5010630A700FA30A800C120A70BE1
:1004B000542A83168615831286196B2A2508023C56
:1004C000031D6B2A0330A5000630A700FA30A800F0
:1004D000C120A70B662A83168615831286197B2AEC
:1004E000250B7B2A0230A5000630A700FA30A800B1
:1004F000C120A70B762A83168615831286198C2AAB
:10050000A508031D8C2A0130A5000630A700FA308B
:10051000A800C120A70B872A2508013A0319972AAA
:10052000033A0319E92A013A03191C2B8F2BA7015F
:1005300027082920A70AF700AB003E211130270227
:10054000031D982AA70127083F20A70AF700AB0040
:100550003E210A302702031DA32A2108A9001B30CF
:10056000AA008A216400831606168312061ABA2A84
:100570000130A107831686168312861AC52A210820
:10058000013C0318C52A0130A10203178D01031392
:10059000210803178C0083168C130C158312031388
:1005A0000B08F7008B138316031755308D00AA3004
:1005B0008D008C148C18DA2A0C117708831203131F
:1005C0008B040430A700FA30A800C120A70BE32A4F
:1005D000B22BA70127085020A70AF700AB003E2145
:1005E00011302702031DEA2AA70127086620A70A5F
:1005F000F700AB003E2107302702031DF52A200833
:10060000A9001B30AA008A216400831606168312F3
:10061000061A102B2008313C031C102B0130A007B8
:10062000831686168312861A1B2B2008013C03189A
:100630001B2B0130A002B22BA70127087420A70AA8
:10064000F700AB003E210F302702031D1D2BA70131
:1006500027086620A70AF700AB003E2107302702D3
:10066000031D282B2008A9001B30AA008A2183160D
:1006700006168312061A502BA70127088820A70AFE
:10068000F700AB003E2106302702031D3D2B8316E9
:100690008510831285148316051183120511372BDB
:1006A000831686168312861A692BA70127089320C2
:1006B000A70AF700AB003E2106302702031D562B88
:1006C0008316051183120515831685108312851074
:1006D000502B6400013003178D000313200803170B
:1006E0008C0083168C130C15831203130B08F70070
:1006F0008B138316031755308D00AA308D008C1490
:100700008C18802B0C117708831203138B04043090
:10071000A700FA30A800C120A70B892BB22BA70194
:1007200027089E20A70AF700AB003E210E302702C3
:10073000031D902B2108A9001B30AA008A2110302C
:10074000A80028089E20A80AF700AB003E211C3014
:100750002802031DA12B2208A9001B30AA008A2110
:10076000A501B22B220823020318D52B200822074B
:1007700021020319C22B031CC22B831605118312FD
:100780000515C62B831605118312051120082207B3
:1007900021020318D02B8316851083128514D42BC5
:1007A0008316851083128510DD2B831605118312A5
:1007B000051183168510831285100430A700C830F8
:0C07C000A800C120A70BDF2B2F2A63002C
:02400E00763FFB
:00000001FF
;PIC16F877A
