:10000000000000308A003D2A0A108A100A11820777
:1000100028340C34013406340A108A100A1182077D
:100020000C345234613475346C34203454344834D4
:10003000433400340A108A100A1182070C34413408
:100040006A347534733474346534203464346534FC
:100050002034743465346E34733461346F34003456
:100060000A108A100A1182070A3456346F346C342D
:1000700074346134673465346D343A3425347534FE
:1000800000340A108A100A1182070C3441346A3491
:10009000753473347434653420346834693473349B
:1000A00074346534723465347334653400340A1042
:1000B0008A100A1182070A3456346F346C3474344F
:1000C00073343A342534753400340A108A100A1116
:1000D00082070C34283456342934203444346534AF
:1000E000663469346E3469346434613420343A34AB
:1000F000253475340A3428345634293420344134B4
:100100007434753461346C3420343A3425347534A5
:1001100000342C30840083130008031995288430A0
:10012000F700F70B9128800B8F280034330EF0393D
:10013000F7000F3008057704880000000814081045
:1001400000348810F03083168800831208150000F0
:10015000081400000808080E0F39B300081000004A
:1001600008140808080E0F39B20008100030831672
:1001700088008312330EF700F030F7057708320459
:10018000F8007808B200B21BA228301C8810301882
:1001900088140000081100000810310EB2000F3062
:1001A000B2053208B300962031080F39B200B3000F
:1001B00096200034003083168800831288100811BE
:1001C00008100F30AC0089200130A7002708033C3D
:1001D000031CF2280330B30096200530AC008920C0
:1001E000A70AE6280230B3009620A7012708033C9F
:1001F000031C032927080420A800B0012808B10027
:10020000A120A70AF6288A110A126D2A2B080C3A97
:1002100003191129063A03191929023A0319302939
:100220003529B0010130B100A1200230AC00892095
:100230003B290130AC000230AD002D0B20292329D1
:100240004030AE002429AE0101302C02AE072E084A
:100250008038AF00B0012F08B100A12000003B2979
:10026000B0011030B100A1203B290130B0002B08B3
:10027000B100A1203B2900348E30F7002808F80097
:100280002708F900FA01F808031D50297908F80039
:10029000F9010830F702F808031D5029F701582921
:1002A0000310F81B5729F90DF80DF7035029F8131F
:1002B0008A110A12BD2A27080319CB29AF002B087F
:1002C0000319CB29AF0703186C297F30AF02031C39
:1002D000CB290319CB2970298130AF070318CB290B
:1002E0002F08F700F801F901FA012808B300B31745
:1002F0002908B2002A08B1001830AF00B001311C43
:1003000099292E08FA07031C8B29F90A031D8B294A
:10031000F80A0319B0172D08F907031C9229F80AE7
:100320000319B0172C08A900A9172908F807031802
:10033000B017B00DF80CF90CFA0CB30CB20CB10CF0
:100340000310AF0B7E290130F7070318CB29F81BE8
:10035000B029B30DFA0DF90DF80DF7030319CB29E8
:10036000B31FC129FA0A031DC129F90A031DC129B6
:10037000F80A031DC129F80CF90CFA0CF70A031945
:10038000CB292808B0002C08B006B01FC929F817DF
:10039000CF29F813CF29F701F801F901FA018A11E1
:1003A0000A12CB2A8E30F7002708F7022808F90036
:1003B0002908F800F917F7080319E9290310F908C3
:1003C000031DE529F8080319E929F90CF80CF70BC6
:1003D000DE29A81FF029F809F909F80A0319F90A12
:1003E0008A110A12D42A2C08F8012B020318FB29BF
:1003F0002B08F700072AF7010830AD00AB0DF70D09
:100400002C0877020318F700F80DAD0BFE29003415
:1004100078082908AB006430AC00F3217708A90004
:1004200078083030031D1B2AAA1C222AAA19222A66
:100430002A1A20301E2AAA112A122A14F80778082C
:10044000AB0006212908AB000A30AC00F321770885
:10045000A90078083030031D332AAA19372A2A1C2C
:10046000372A2A1A2030F8077808AB0006213030E6
:10047000A9072908AB0006210034840183131F302B
:10048000830583161F149F141F159F1107309C00AE
:1004900005308312A000A2011930A300A401A50118
:1004A000FF30A60083161F109F101F159F111F13EA
:1004B00083121F139F1783169F1383121F14073075
:1004C00083169C000508642A652A1C0883120D13F4
:1004D000013083169D008312DA280F30F700810166
:1004E0008130840083130008F039073880006400ED
:1004F0000008F739F719F03977048000FF308316C8
:1005000087008312A6007F30831686008113831232
:10051000A70127080C20A70AF700AB000621093025
:100520002702031D892A0C30A700FA30AC0089206D
:10053000A70B952A03178D0183168C130C148312B5
:100540000C080313A100013003178D0083168C13D0
:100550000C1483120C080313A00064000030F80090
:100560001F08C73978049F001F151F19B52A1E08D8
:10057000A400A8012408A7003C297A08AA00790849
:10058000A9007808A8007708A700AE01AD01AC016A
:100590007E30AB005B297A08AA007908A9007808A8
:1005A000A8007708A700D2297808A4002408220709
:1005B000F7000310770CA2000230A7009630AC00C1
:1005C0008920A70BDE2A8316861583128619F42A42
:1005D0002508023C031DF42AA5010630A700FA30C5
:1005E000AC008920A70BEF2A831686158312861983
:1005F000042B250B042B0230A5000630A700FA308F
:10060000AC008920A70BFF2A831686158312861952
:10061000152BA508031D152B0130A5000630A700DA
:10062000FA30AC008920A70B102B2508013A0319DA
:100630001D2B033A03196F2BC62BA70127081A207D
:10064000A70AF700AB00062111302702031D1E2B5D
:10065000A70127083020A70AF700AB0006210A30BF
:100660002702031D292B2108A9001B30AA000822FC
:100670006400831606168312061A402B0130A10768
:10068000831686168312861A4B2B2108013C031809
:100690004B2B0130A10203178D010313210803170F
:1006A0008C0083168C130C15831203130B08F700B0
:1006B0008B138316031755308D00AA308D008C14D0
:1006C0008C18602B0C117708831203138B040430F1
:1006D000A700FA30AC008920A70B692BE92BA701F2
:1006E00027084120A70AF700AB0006211130270296
:1006F000031D702BA70127085720A70AF700AB009E
:10070000062107302702031D7B2B2008A9001B3080
:10071000AA0008226400831606168312061A962B76
:100720002008313C031C962B0130A0078316861647
:100730008312861AA12B2008013C0318A12B01303B
:10074000A002013003178D000313200803178C004B
:1007500083168C130C15831203130B08F7008B13ED
:100760008316031755308D00AA308D008C148C1819
:10077000B72B0C117708831203138B040430A700E6
:10078000FA30AC008920A70BC02BE92BA701270862
:100790006520A70AF700AB0006210F302702031DD2
:1007A000C72B2108A9001B30AA0008221130A8007D
:1007B00028086520A80AF700AB0006211D30280292
:1007C000031DD82B2208A9001B30AA000822A5016E
:1007D000E92B2208230203180C2C200822072102EF
:1007E0000319F92B031CF92B831605118312051528
:1007F000FD2B831605118312051120082207210203
:100800000318072C83168510831285140B2C83166E
:10081000851083128510142C83160511831205117F
:1008200083168510831285100430A700C830AC00F1
:0A0830008920A70B162CAD2A1C2C02
:02400E003A373F
:00000001FF
;PIC16F877A
