:1000000000308A000E2A00000A108A100A118207A6
:1000100028340C34013406340A108A100A1182077D
:100020000C345234613475346C34203400340A108A
:100030008A100A1182070A3443346F346E347434E0
:1000400072346F346C34653420345434483443345F
:1000500000340A108A100A1182070C3441346A34C1
:100060007534733474346534203464346534203426
:10007000743465346E34733461346F3400340A1070
:100080008A100A1182070A3456346F346C3474347F
:100090006134673465346D343A3425347534003452
:1000A0000A108A100A1182070C3441346A347534FC
:1000B000733474346534203468346934733474347C
:1000C0006534723465347334653400340A108A1030
:1000D0000A1182070A3456346F346C347434733422
:1000E0003A342534753400340A108A100A11820714
:1000F0000C345434653473347434653420346434CB
:1001000065342034733461346934643461340034C8
:100110000A108A100A1182070A3444346534733491
:100120006334653400340A108A100A1182070A34D5
:1001300053346F3462346534203400340A108A102A
:100140000A1182070C34543465346D3470346F34C2
:10015000203464346534203472346534743461344A
:10016000723464346F3400340A108A100A11820722
:100170000A344D3473346534673475346E34643402
:100180006F3473343A342534753400340A108A10CD
:100190000A1182070C34283456342934203444346C
:1001A0006534663469346E346934643461343A34A5
:1001B000253475340A3428345634293420344134F3
:1001C0007434753461346C3420343A3425347534E5
:1001D00000343B308400831300080319F5285230A3
:1001E000F700F70BF128800BEF280034460EF039AA
:1001F000F7000F3008057704880000000814081085
:1002000000348810F030831688008312081500002F
:10021000081400000808080E0F39C6000810000076
:1002200008140808080E0F39C5000810003083169E
:1002300088008312460EF700F030F7057708450472
:10024000F8007808C500C51B0229431C8810431814
:1002500088140000081100000810440EC5000F307B
:10026000C5054508C600F62044080F39C500C6007C
:10027000F62000340030831688008312881008119D
:1002800008100F30BB00E9200130BA003A08033CE7
:10029000031C52290330C600F6200530BB00E920BC
:1002A000BA0A46290230C600F620BA013A08033CD1
:1002B000031C63293A080420BB00C3013B08C400A7
:1002C0000121BA0A56298A110A123A2A3E080C3A22
:1002D00003197129063A03197B29023A0319912956
:1002E0009629C3010130C4000121A630F700F70BA5
:1002F000772900009C290130BF000230C000400B6C
:10030000822985294030C1008629C10101303F0280
:10031000C10741088038C200C3014208C40001215E
:100320009C29C3011030C40001219C290130C30065
:100330003E08C40001219C2900343F08F8013E0218
:100340000318A5293E08F700B129F7010830C000BD
:10035000BE0DF70D3F0877020318F700F80DC00B2C
:10036000A829003478083C08BE006430BF009D21F5
:100370007708BC0078083030031DC529BD1CCC2986
:10038000BD19CC293D1A2030C829BD113D123D149C
:10039000F8077808BE0066213C08BE000A30BF009E
:1003A0009D217708BC0078083030031DDD29BD1978
:1003B000E1293D1CE1293D1A2030F8077808BE00EC
:1003C00066213030BC073C08BE0066210034F701CE
:1003D000F8013A0803103B18F707F70CF80CBB18A4
:1003E000F707F70CF80C3B19F707F70CF80CBB19DB
:1003F000F707F70CF80C3B1AF707F70CF80CBB1AC9
:10040000F707F70CF80C3B1BF707F70CF80CBB1BB6
:10041000F707F70CF80C8A110A12402C8401831399
:100420001F30830583161F149F141F159F1107305B
:100430009C008312A001A101AC01AD01AE01053009
:10044000AF00B1011930B200B301B401B501B6017A
:10045000B701B801FF30B90083161F109F101F1598
:100460009F111F1383121F139F1783169F1383124D
:100470001F143A290F30F700810181308400831363
:100480000008F0390738800064000008F739F719D0
:10049000F03977048000FF30831687008312B9009B
:1004A000F930831686008113F13085008312BA017A
:1004B0003A080C20BA0AF700BE00662106303A025C
:1004C000031D582ABA013A081720BA0AF700BE00DD
:1004D00066210D303A02031D632A0230BA009630BD
:1004E000BB00E920BA0B6F2A03178D0183168C130A
:1004F0000C1483120C080313B000013003178D0095
:1005000083168C130C1483120C080313AF000230F3
:1005100003178D0083168C130C1483120C0803131D
:10052000B50064000030F8001F08C73978049F0048
:100530001F151F19992A1E08B300A1013308A00036
:100540000730AC00AC080319BB2A24302C07F80094
:10055000FA010318FA0A01302C02243E84008313A6
:100560000008BD007808840083137A1883173D08BB
:100570008000AC03A22AAE01AD012008A400AC01AA
:100580002C08073C031CCE2A24302C07840083133C
:100590000008AD070318AE0AAC0AC02A2E0CFA00F8
:1005A0002D0CF900FA0CF90CFA0CF90C7908B100D1
:1005B0008316861583128619E92A3408043C031D24
:1005C000E92AB4010630BA00FA30BB00E920BA0BC0
:1005D000E42A8316861583128619FB2A3408033C05
:1005E000031DFB2A0430B4000630BA00FA30BB0009
:1005F000E920BA0BF62A83168615831286190D2B6D
:100600003408023C031D0D2B0330B4000630BA0041
:10061000FA30BB00E920BA0B082B8316861583122B
:1006200086191D2B340B1D2B0230B4000630BA0086
:10063000FA30BB00E920BA0B182B831686158312FB
:1006400086192E2BB408031D2E2B0130B400063062
:10065000BA00FA30BB00E920BA0B292B3408013A62
:1006600003193C2B033A03198E2B013A0319C82BAB
:10067000073A03193B2C9A2CBA013A082920BA0AE6
:10068000F700BE00662111303A02031D3D2BBA016E
:100690003A083F20BA0AF700BE0066210A303A0243
:1006A000031D482B3008BC001B30BD00B221640084
:1006B000831606168312061A5F2B0130B0078316C5
:1006C00086168312861A6A2B3008013C03186A2B9F
:1006D0000130B00203178D010313300803178C009B
:1006E00083168C130C15831203130B08F7008B135E
:1006F0008316031755308D00AA308D008C148C188A
:100700007F2B0C117708831203138B040430BA007B
:10071000FA30BB00E920BA0B882BBD2CBA013A088D
:100720005020BA0AF700BE00662111303A02031DBC
:100730008F2BBA013A086620BA0AF700BE0066217C
:1007400007303A02031D9A2B2F08BC001B30BD0056
:10075000B2216400831606168312061AB52B2F08E1
:10076000313C031CB52B0130AF078316861683126C
:10077000861AC02B2F08013C0318C02B0130AF0292
:100780000430BA00FA30BB00E920BA0BC22BBD2CF2
:10079000BA013A087420BA0AF700BE0066210F3089
:1007A0003A02031DC92BBA013A086620BA0AF700BB
:1007B000BE00662107303A02031DD42B2F08BC006F
:1007C0001B30BD00B221831686168312861AFC2BBD
:1007D0008316051183120515831685108312851063
:1007E000BA013A088820BA0AF700BE00662106302E
:1007F0003A02031DF12BE32B831606168312061A09
:10080000152C831685108312851483160511831207
:100810000511BA013A089320BA0AF700BE00662112
:1008200006303A02031D0A2CFC2B6400013003172A
:100830008D0003132F0803178C0083168C130C15DF
:10084000831203130B08F7008B138316031755301D
:100850008D00AA308D008C148C182C2C0C1177086C
:10086000831203138B040430BA00FA30BB00E92072
:10087000BA0B352CBD2C3508BA000A30BB00E7296D
:10088000B8017808B700BA013A089E20BA0AF70002
:10089000BE00662111303A02031D442CBA013A0809
:1008A000B420BA0AF700BE0066210B303A02031DDD
:1008B0004F2C3508BC001B30BD00B2218316061634
:1008C0008312061A692C3508F93C031C692C143074
:1008D000B507831686168312861A742C3508143CC5
:1008E0000318742C1430B5026400023003178D0015
:1008F0000313350803178C0083168C130C15831211
:1009000003130B08F7008B138316031755308D0064
:10091000AA308D008C148C188B2C0C117708831244
:1009200003138B040430BA00FA30BB00E920BA0B81
:10093000942CBD2CBA013A08C620BA0AF700BE00B2
:1009400066210E303A02031D9B2C3008BC001B3080
:10095000BD00B2211030BB003B08C620BB0AF70027
:10096000BE0066211C303B02031DAC2C3108BC00CC
:100970001B30BD00B221B401BD2C31083202031876
:10098000E82C0A30B607360835020318E72C35087C
:10099000B6002F08310730020319D52C031CD52CC3
:1009A0008316051183120515D92C831605118312A0
:1009B00005112F08310730020318E32C8316851028
:1009C00083128514E72C8316851083128510F12C71
:1009D000B601831605118312051183168510831243
:0C09E0008510C830BB00E920912A63009C
:02400E00763FFB
:00000001FF
;PIC16F877A
