:1000000000308A002D2A00000A108A100A11820787
:1000100028340C34013406340A108A100A1182077D
:100020000C345234613475346C34203454344834D4
:10003000433400340A108A100A1182070C34413408
:100040006A347534733474346534203464346534FC
:100050002034743465346E34733461346F34003456
:100060000A108A100A1182070A346434693473341E
:10007000743461346E346334693461343A34253411
:100080006C34753400340A108A100A1182070C345B
:1000900044346534663469346E34693464346134AC
:1000A000203431343A3425346C3475340A344C34C9
:1000B00069346434613420343A3425346C34753412
:1000C0000034323084008313000803196D28843013
:1000D000F700F70B6928800B67280034390EF039D8
:1000E000F7000F3008057704880000000814081096
:1000F00000348810F0308316880083120815000041
:10010000081400000808080E0F39B9000810000094
:1001100008140808080E0F39B800081000308316BC
:1001200088008312390EF700F030F705770838049D
:10013000F8007808B800B81B7A28361C88103618E2
:1001400088140000081100000810370EB8000F30A6
:10015000B8053808B9006E2037080F39B800B90063
:100160006E20003400308316880083128810081136
:1001700008100F30B20061200130A6002608033CB1
:10018000031CCA280330B9006E200530B20061207C
:10019000A60ABE280230B9006E20A6012608033C3C
:1001A000031CDB2826080420A700B6012708B70097
:1001B0007920A60ACE288A110A125B2A31080C3A45
:1001C0000319E928063A0319F128023A0319072905
:1001D0000C29B6010130B70079200230B20061204D
:1001E00012290130B2000230B300330BF828FB288B
:1001F0004030B400FC28B40101303202B4073408A6
:100200008038B500B6013508B70079201229B6014B
:100210001030B700792012290130B6003108B7003C
:100220007920122900348E30F7002708F8002608BC
:10023000F900FA01F808031D27297908F800F901E7
:100240000830F702F808031D2729F7012F290310AA
:10025000F81B2E29F90DF80DF7032729F8138A1139
:100260000A128A2A26080319A229AE002A080319AD
:10027000A229AE07031843297F30AE02031CA2292E
:100280000319A22947298130AE070318A2292E0895
:10029000F700F801F901FA012708B200B21728089F
:1002A000B1002908B0001830AE00AF01301C702931
:1002B0002D08FA07031C6229F90A031D6229F80AAE
:1002C0000319AF172C08F907031C6929F80A031949
:1002D000AF172B08A800A8172808F8070318AF17AE
:1002E000AF0DF80CF90CFA0CB20CB10CB00C0310F9
:1002F000AE0B55290130F7070318A229F81B8729EF
:10030000B20DFA0DF90DF80DF7030319A229B21F6A
:100310009829FA0A031D9829F90A031D9829F80A51
:10032000031D9829F80CF90CFA0CF70A0319A229F5
:100330002708AF002B08AF06AF1FA029F817A62982
:10034000F813A629F701F801F901FA018A110A1236
:100350009B2A8E30F7002608F7022708F9002808A4
:10036000F800F917F7080319C0290310F908031D4D
:10037000BC29F8080319C029F90CF80CF70BB529AA
:10038000A71FC729F809F909F80A0319F90A8A11F8
:100390000A12A42AB0010408AF003010831B3014E5
:1003A000290EF038AB00AB07E23EAC00323EAE00A7
:1003B00029080F39AC07AC07AE07E93EAD00AD0721
:1003C000AD07280E0F39AD07AE07AD0DAE0DAE0966
:1003D000AE0D28080F39AE07AB0D0730AA000A3062
:1003E000AE07AD03031CF029AD07AC03031CF429D1
:1003F000AC07AB03031CF829AB07AA03031CFC29B9
:100400002A308400831307302F052F1384072E30E2
:10041000040203192F170008F700031D172A2F1BCA
:10042000172A2F1A292AAF19172A20301A2AAF158E
:100430002F123030F707A9010408A8002910831BE8
:1004400029147708B100DE202808840083132918B6
:100450008317840A2F1F072A0034840183131F3057
:10046000830583161F149F141F159F1107309C00CE
:1004700001308312A0003230A100A201FF30A5009C
:1004800083161F109F101F159F111F1383121F1318
:100490009F1783169F1383121F14073083169C0027
:1004A0000508522A532A1C0883120D1301308316A3
:1004B0009D008312B228FF30831687008312A500A7
:1004C0007F30831686008113FF3085008312A601DA
:1004D00026080C20A60AF700B100DE20093026020B
:1004E000031D682A0C30A600FA30B2006120A60B6A
:1004F000742A0030F8001F08C73978049F001F15C0
:100500001F19802A1E08A401A3002408A70023089D
:10051000A60013297A08A9007908A8007808A7007E
:100520007708A6003930AD00B430AC004830AB00DD
:100530007C30AA0032297A08A9007908A800780836
:10054000A7007708A600A9297908A4007808A300C5
:100550000230A6009630B2006120A60BAA2A8316AC
:1005600006168312061EB92A831686168312861A69
:10057000002BA60126081A20A60AF700B100DE20EB
:1005800011302602031DBA2AA60126083020A60A29
:10059000F700B100DE200B302602031DC52A103003
:1005A00084002208A9002108A800CA218316061683
:1005B0008312061AE62AA208031DE62A2108C73C70
:1005C000031CE62A0130A1070318A20A8316861627
:1005D0008312861AF82AA208031DF22A2108013C78
:1005E0000318F82A0130A1020030031C0130A202D6
:1005F0000430A600C830B2006120A60BFA2AAF2A48
:1006000020082302A6002408A7000030031C0130A4
:10061000A70222082702031C182B031D132B2608F0
:1006200021020318182B83168510831285141C2BA6
:10063000831685108312851020082307A60024083E
:10064000A7000318A70A27082202031C322B031D48
:100650002D2B210826020318322B83160511831235
:100660000515362B8316051183120511C830B2000B
:100670006120A60126084320A60AF700B100DE206B
:100680000C302602031D3A2B103084002208A900EA
:100690002108A800CA210F30A70027084320A70A75
:1006A000F700B100DE2016302702031D4D2B10305D
:1006B00084002408A9002308A800CA21792A63001D
:02400E00723FFF
:00000001FF
;PIC16F877A
